{
  "_format": "hh-sol-artifact-1",
  "contractName": "TestContract",
  "sourceName": "contracts/TestContract.sol",
  "abi": [
    {
      "inputs": [],
      "stateMutability": "nonpayable",
      "type": "constructor"
    },
    {
      "inputs": [],
      "name": "name",
      "outputs": [
        {
          "internalType": "string",
          "name": "",
          "type": "string"
        }
      ],
      "stateMutability": "view",
      "type": "function"
    },
    {
      "inputs": [],
      "name": "symbol",
      "outputs": [
        {
          "internalType": "string",
          "name": "",
          "type": "string"
        }
      ],
      "stateMutability": "view",
      "type": "function"
    },
    {
      "inputs": [],
      "name": "totalSupply",
      "outputs": [
        {
          "internalType": "uint256",
          "name": "",
          "type": "uint256"
        }
      ],
      "stateMutability": "view",
      "type": "function"
    }
  ],
  "bytecode": "0x60806040526040518060400160405280600981526020017f54657374546f6b656e00000000000000000000000000000000000000000000008152506000908051906020019061004f9291906100b5565b506040518060400160405280600381526020017f54544b00000000000000000000000000000000000000000000000000000000008152506001908051906020019061009b9291906100b5565b50620f42406002553480156100af57600080fd5b506101b9565b8280546100c190610158565b90600052602060002090601f0160209004810192826100e3576000855561012a565b82601f106100fc57805160ff191683800117855561012a565b8280016001018555821561012a579182015b8281111561012957825182559160200191906001019061010e565b5b509050610137919061013b565b5090565b5b8082111561015457600081600090555060010161013c565b5090565b6000600282049050600182168061017057607f821691505b602082108114156101845761018361018a565b5b50919050565b7f4e487b7100000000000000000000000000000000000000000000000000000000600052602260045260246000fd5b610348806101c86000396000f3fe608060405234801561001057600080fd5b50600436106100415760003560e01c806306fdde031461004657806318160ddd1461006457806395d89b4114610082575b600080fd5b61004e6100a0565b60405161005b919061020a565b60405180910390f35b61006c61012e565b604051610079919061022c565b60405180910390f35b61008a610134565b604051610097919061020a565b60405180910390f35b600080546100ad906102a0565b80601f01602080910402602001604051908101604052809291908181526020018280546100d9906102a0565b80156101265780601f106100fb57610100808354040283529160200191610126565b820191906000526020600020905b81548152906001019060200180831161010957829003601f168201915b505050505081565b60025481565b60018054610141906102a0565b80601f016020809104026020016040519081016040528092919081815260200182805461016d906102a0565b80156101ba5780601f1061018f576101008083540402835291602001916101ba565b820191906000526020600020905b81548152906001019060200180831161019d57829003601f168201915b505050505081565b60006101cd82610247565b6101d78185610252565b93506101e781856020860161026d565b6101f081610301565b840191505092915050565b61020481610263565b82525050565b6000602082019050818103600083015261022481846101c2565b905092915050565b600060208201905061024160008301846101fb565b92915050565b600081519050919050565b600082825260208201905092915050565b6000819050919050565b60005b8381101561028b578082015181840152602081019050610270565b8381111561029a576000848401525b50505050565b600060028204905060018216806102b857607f821691505b602082108114156102cc576102cb6102d2565b5b50919050565b7f4e487b7100000000000000000000000000000000000000000000000000000000600052602260045260246000fd5b6000601f19601f830116905091905056fea2646970667358221220803e200cc49771d18cc3d6e7ae978534ba5ee4a5c0924802792f1f68167834d964736f6c63430008000033",
  "linkReferences": {},
  "deployedLinkReferences": {}
}